:020000040800F2
:1000000000000220D1A400081D04000821040008FB
:1000100025040008290400082D0400080000000041
:100020000000000000000000000000003104000893
:100030003504000800000000390400083D040008F1
:1000400019A5000819A5000819A5000819A5000898
:1000500019A5000819A5000819A5000819A5000888
:1000600019A5000819A5000819A5000819A5000878
:1000700019A5000819A5000819A5000819A5000868
:1000800019A5000819A5000819A5000819A5000858
:1000900019A5000819A5000819A5000819A5000848
:1000A00019A5000819A5000819A5000819A5000838
:1000B00019A5000819A5000819A5000819A5000828
:1000C00019A5000819A5000819A5000819A5000818
:1000D00019A5000819A5000819A5000819A5000808
:1000E00019A5000819A5000819A5000819A50008F8
:1000F00019A5000819A5000819A5000819A50008E8
:1001000019A5000819A5000819A5000819A50008D7
:1001100019A5000819A50008619E000819A5000886
:1001200019A5000819A5000819A5000819A50008B7
:1001300019A5000819A5000819A5000819A50008A7
:1001400019A5000819A5000819A5000819A5000897
:1001500019A5000819A5000819A5000819A5000887
:1001600019A5000819A5000819A5000819A5000877
:1001700019A5000819A5000819A5000819A5000867
:0801800019A5000819A50008EB
:1001880010B5054C237833B9044B13B10448AFF3C9
:1001980000800123237010BD4004002000000000EF
:1001A8002CA80008084B10B51BB108480849AFF344
:1001B80000800848036803B910BD074B002BFBD02B
:1001C800BDE81040184700BF000000002CA8000838
:1001D800440400203C04002000000000154B002BC4
:1001E80008BF134B9D46A3F5803A00218B460F4666
:1001F8001348144A121A0AF0C5F90F4B002B00D005
:1002080098470E4B002B00D098470020002104008F
:100218000D000D48002802D00C480AF075FA0AF0C3
:1002280089F9200029000AF0F3F80AF073F900BFF1
:1002380000000800000000000000000000000000AE
:10024800400400205406002011A700081DA700083C
:1002580008B500F00BFD0A4B186000F0C1FD40F630
:10026800B73398424FF02001064804D90122BDE86F
:10027800084005F07BBA0022BDE8084005F076BAD0
:100288005C040020000C024008B500F0EFFC034BB2
:100298001860BDE8084000F0B5BD00BF5C04002050
:1002A800384B39481A68002142F001021A609960F7
:1002B8001A6822F0847222F480321A6058601A6830
:1002C80082B022F480221A60D960009101911A68E4
:1002D80042F480321A601A4602E0009B642B09D06F
:1002E800136803F400330193009B01330093019BCF
:1002F800002BF2D0234B1B6813F4003318BF0123E3
:100308000193019B012B0BD0204BD3F888204FF091
:10031800006142F47002C3F88820996002B0704707
:10032800184B1B491A6C1B4842F080521A640A6821
:1003380042F480420A609A689A609A6842F40042DD
:100348009A609A6842F4A0529A6058601A6842F01B
:1003580080721A601A4611680A4B8901FBD50E4A49
:1003680040F2056111609A6822F003029A609A6867
:1003780042F002029A601A46936803F00C03082BB5
:10038800FAD1C1E7003802401030002400ED00E047
:100398000070004008544007003C02401848836839
:1003A80003F00C03042B29D0082B0AD0154B144A50
:1003B800154892681549C2F30312825CD3400B605A
:1003C80070474368416813F4800F436818BF1048AA
:1003D80001F03F020CBF0B49B0FBF2F1C3F38813E5
:1003E80008BFB1FBF2F101FB03F2054B5B68C3F3F5
:1003F800014301335B00B2FBF3F3D8E7044BD6E7C4
:10040800003802400024F400F8A700080400002087
:1004180040787D01704700BFFEE700BFFEE700BFE0
:10042800FEE700BFFEE700BF704700BF704700BF90
:10043800704700BF09F0EABAF0B589B000241A4D38
:1004480001942B6B43F001032B632B6B059403F092
:10045800010304210193074602230722039113484D
:10046800019E049303A90693079204F0BDFF02942A
:100478002A6C0F4B0F4E5F6042F400322A642A6CDC
:100488009C6002F40032029208214FF40042DC60C2
:100498001C619C6118465961DA61029C1E6006F075
:1004A80095F909B0F0BD00BF0038024000000240D5
:1004B800600400200044004000B583B002A9012276
:1004C80001F8010D42F21073024806F07FFA03B0FA
:1004D8005DF804FB6004002070B5441E82B000F291
:1004E800FF3601E0B4421BD014F8015F0D480DF14E
:1004F8000601012242F2107395B18DF8065006F0FC
:1005080065FA23780A2BEDD102A90D2301F8013DE4
:100518000448012242F2107306F058FAB442E3D1BB
:1005280002B070BD600400200FB470B58EB012AB7D
:1005380053F8045B03932B7843B3002214462E46EA
:10054800252B28D12A445378CBB1623B162B00F2D5
:10055800A180DFE803F07F916F9F4B9F9F9F9F9F34
:100568009F9F9F9F9F9F9F0C9F9F9F9F3800039BCC
:100578001A1D18680392FFF7AFFF0134A4B20134C3
:10058800A4B222462B5D2E19002BD9D10EB0BDE89E
:10059800704004B070478DF80630624842F210731C
:1005A8000DF10601012206F011FA33780A2BE6D183
:1005B8000EA90D2301F8313D012242F2107359486A
:1005C80006F004FADBE79378622B00F08F80682B43
:1005D80076D0772B039B00F09D801A1D013C1B6889
:1005E8000392A4B202934FF4006042E0039B0733E6
:1005F80023F00703D3E900010833420F21F07846BE
:100608000028039342EAC60371F10002B8BF43F021
:100618000043002001F08041029350EA01033CD1DD
:100628004FF4807004AA02A900F0BEF804A8FFF7EE
:1006380053FFA2E79378622B51D0682B39D0772BE0
:10064800039B61D01A1D013C1B680392A4B202935C
:1006580020200EE09378622B3AD0682B22D0772B9B
:10066800039B4BD01A1D013C1B680392A4B2029352
:1006780004200134A4B2D5E7039B2A481A680EA9BE
:100688001E1D01F8332D42F210730122039606F065
:100698009DF972E7002302936FE7029B43F08043C2
:1006A8000293BDE7039B1A1D1B6803920293022065
:1006B800DFE7039B1A1D1B68039202931020D8E7FB
:1006C800039B1A1D1B68039202934FF48060D0E7C6
:1006D800039B1A1D1B68039202930120C9E7039B21
:1006E8001A1D1B68039202930820C2E7039B1A1D78
:1006F8001B68039202934FF40070BAE71A1D1B6837
:10070800039202930420B4E71A1D1B680392029314
:100718002020AEE71A1D1B68039202934FF4006075
:10072800A7E700BF60040020F0B40D4A0D4F00F1A8
:100738000A053026914205F8016D08D3312400E0FE
:100748001C46891A631C9142DBB2F9D22C70A7FBB4
:10075800023285424FEAD202ECD1F0BC704700BFAA
:1007680000CA9A3BCDCCCCCC70B40B88002509309C
:100778002C46ADB90678302E0FD0D6540B880133ED
:100788009BB20B8001250134E4B20A2C00F1FF3042
:10079800EFD10021D15470BC7047092CF3D1ECE79C
:1007A8000578D554EAE700BF2DE9F04784B0002367
:1007B800102815461370ADF8023000F0548124D982
:1007C800B0F5007F4FD040F28280B0F5806F64D0E2
:1007D800B0F5006F16D11A4601240B6800E00446F4
:1007E8001B0F092B03F130008ABF3733A854AB54D1
:1007F800601C0B6880B21B0109280B602246EED1F1
:1008080000232B7204B0BDE8F087022800F01481A1
:1008180017D9042840F024810B6805F12000302402
:100828003126002BB4BF167014700B6801325B00C0
:1008380082420B60F5D1002385F8203004B0BDE872
:10084800F0870128DED10B6805F108003026312435
:100858001F064CBF147016700B6801325B00824291
:100868000B60F5D1CCE71A460B680124C3F30313D8
:10087800092BD8B200F1300386BF3730A854AB54E7
:10088800601C0B6880B21B0103280B6040F0D1800C
:100898000023AB7004B0BDE8F0871A460B68144615
:1008A800C3F30333092BD8B200F130038ABF3730C2
:1008B8002B55285501320B6892B21B01042A1446A5
:1008C8000B60EDD100232B7104B0BDE8F087202820
:1008D80000F0C980B0F5807F94D191ED007AB5EE33
:1008E800C07AF1EE10FA00F1FA80F7EE007AB4EE71
:1008F800E77AF1EE10FA00F1DC8040F30181002381
:10090800B2EE046A67EE867A0133B4EEE77AF1EE66
:1009180010FA9BB2F2EE046AF4DCC7EEA67A5C1E0B
:10092800A4B24FF020080DF10E077949DFF8ECC1A9
:10093800384601AE4FF0300EC7EE277A9FED757A34
:10094800FCEEE76A16EE902AF8EE666A77EEE67A2B
:1009580067EE877AFCEEE77A17EE90AA914200F8E4
:1009680001ED0BD84FF0310900E09946521A09F110
:1009780001038A42DBB2F8D280F80090ACFB013167
:10098800B0424FEAD101E9D10DF10209494630469A
:100998002A46FFF7E9FE5E4ADFF880E13946302053
:1009A800524501F8010D0CD84FF0310C00E09C467F
:1009B800C2EB0A0A0CF101039245DBB2F7D281F8C7
:1009C80000C0AEFB02328E424FEAD202E8D12E239B
:1009D80049462A4630468DF80730FFF7C5FEBDF870
:1009E8000220531C65219BB2B8F12D0FA954ADF814
:1009F800023058D0464ADFF824E13020A24207F8F6
:100A0800010D08D8312100E01946A41A4B1C944264
:100A1800DBB2F9D23970AEFB0232BE424FEAD202E3
:100A2800ECD1304649462A46FFF79EFE04B0BDE8A1
:100A3800F0872246044619E70B6805F110003026B6
:100A480031241B044CBF147016700B6801325B0014
:100A580082420B60F5D100232B7404B0BDE8F08707
:100A680008287FF4CFAE0A68002A40DB2849DFF85F
:100A7800ACE001AE0DF10E043027914204F8017D7F
:100A880008D8312000E01846521A431C8A42DBB2CB
:100A9800F9D22070AEFB0131B4424FEAD101ECD15A
:100AA8000DF10209BDE7023205F80380ADF8022016
:100AB800A0E7DFED197AB4EEE77AF1EE10FA24D563
:100AC800F0EE676A012467EEA67A0134B4EEE77A9D
:100AD800F1EE10FAA4B2F6D44FF02D0823E72D2238
:100AE8000123B1EE477A2A70ADF80230FDE62D23D6
:100AF8002B700A68012352420A60ADF80230B5E74C
:100B08004FF6FF74DFED047A0BE70124E4E700BF3A
:100B180000CA9A3B00007A44CDCCCC3DCDCCCCCC9D
:100B280070B582B00022184B0192196C174D184EFF
:100B3800AA6041F0040119641B6C2A6103F00403E4
:100B48000193044653224FF47A73284601992E6084
:100B58006A60EB6002F008FA284600F0CBFA44B16C
:100B68002A686FF001011369DB07FCD5013C1161AC
:100B7800F9D1064800F0D0FA034A136C23F00403B5
:100B8800136402B070BD00BF00380240A00400200A
:100B98000008004070B582B00023174A0193116C19
:100BA800164D174E6B6041F004011164126CAB6076
:100BB80002F00402019204465422284601992B614E
:100BC8002E60EA6002F0D0F9284600F093FA44B1AA
:100BD8002A686FF001011369DB07FCD5013C11613C
:100BE800F9D1064800F098FA034A136C23F004037D
:100BF800136402B070BD00BF00380240A00400209A
:100C08000008004070B582B000230F4A0193116CB0
:100C18000E4C41F001011164126CA36002F0010254
:100C280001924AF20F414FF0FF324FF080452046C3
:100C380023616160E260019E256002F095F920461B
:100C480000F058FA02B070BD00380240E0040020FD
:100C580008B5044800F060FA034A136C23F0040353
:100C6800136408BDA004002000380240024B1B6832
:100C7800586A4008704700BFE0040020094B1B6811
:100C88005B6A5B08834205D31B1A8B4234BF002082
:100C980001207047C043034499428CBF00200120C3
:100CA800704700BFE0040020F0B58DB00024204E4E
:100CB8000194336B1F48204D43F004033363336BB7
:100CC80003F0040301932022032307A90792089342
:100CD800019F04F089FB02940394049405940694FC
:100CE800736C6C6043F480737364736C134A1449B7
:100CF800296003F48073012602932846029BAA62A6
:100D0800AC602C612C7685F82040EC62EC6085F8AC
:100D18003040EE616E6107F079FA0F23284603A987
:100D280004960594039307F0CDFE0DB0F0BD00BF07
:100D38000038024000080240680500200100000F4A
:100D480000200140F0B58DB00024204E0194336B93
:100D58001F48204D43F004033363336B03F004034F
:100D680001931022032307A907920893019F04F017
:100D78003BFB02940394049405940694736C6C6092
:100D880043F400737364736C134A1449296003F4C1
:100D98000073012602932846029BAA62AC602C616C
:100DA8002C7685F82040EC62EC6085F83040EE61E6
:100DB8006E6107F02BFA0E23284603A904960594C2
:100DC800039307F07FFE0DB0F0BD00BF003802406E
:100DD80000080240200500200100000F002101400A
:100DE80008B5074807F0E2FA054842F2107107F023
:100DF8007DFB0028F8D1024807F07AFD80B208BDD3
:100E08006805002008B5074807F0D0FA054842F2FF
:100E1800107107F06BFB0028F8D1024807F068FD55
:100E280080B208BD20050020F0B58FB00024224E06
:100E38000094336B2148224D43F004033363336B32
:100E4800049403F0040300930322022302A94FF43D
:100E58008057DDF800E0029703930693059204F0AB
:100E6800C3FA0194336CAC6043F004033364336C0D
:100E7800144F2C6103F004030193532142F20F72C3
:100E880080232846019E6960EA60AB612F60602676
:100E980002F0A2F84FF4FA73224607A928460893ED
:100EA80009940B94079602F0B1F92846214600F000
:100EB80031FC0FB0F0BD00BF00380240000802400E
:100EC800B005002000080040014B1B6858637047BC
:100ED800B0050020F0B4046A8F680E68144D24F041
:100EE80001040462036A4468826923F0020322F061
:100EF8007302A84243EA070342EA06020AD005F54C
:100F08008065A84206D0496844608261F0BC4163AC
:100F180003627047CD688E6923F008032B434D693F
:100F280024F44074354323F004032C43EBE700BF5B
:100F380000000140F0B4046A8F680E68154D24F46F
:100F480080740462036A4468C26923F4007322F05F
:100F58007302A84243EA072342EA06020AD005F5CB
:100F68008065A84206D049684460C261F0BCC1638C
:100F780003627047CD688F6923F4006343EA052351
:100F88004D6924F4405444EA051423F4806344EA88
:100F98000714E8E700000140F0B4046A8F680E689F
:100FA800104D24F480540462036A4468C26923F42F
:100FB800005322F4E642A84243EA073342EA0622F3
:100FC8000AD005F58065A84206D049684460C26128
:100FD800F0BC0164036270474D6924F4804444EA1C
:100FE8008514F2E70000014002684868936823F01E
:100FF800700370B403430C6823F00703234350289D
:1010080093603ED026D960280FD0702836D101F1E0
:10101800080338CB9068234320F47F410B4343EA0D
:1010280005239360002070BC7047106A8C680D69B6
:1010380020F0100010629169136A21F4704123F0C6
:10104800A00341EA053143EA0413916100201362C9
:1010580070BC7047402811D1052C26D0146A106A3C
:101068000D6920F001011162936923F0F00343EA4E
:10107800051393610020146270BC7047002070BC97
:101088007047146A156A88680E6925F001011162B3
:10109800936924F00A0123F0F003014343EA06139D
:1010A80093610020116270BC70470120BBE700BF4C
:1010B800704700BF704700BF0223026810B580F870
:1010C8003D30116A41F211130B40044643B9116ACD
:1010D80040F244430B401BB9136823F0010313602B
:1010E8002046FFF7E7FF002084F83D0084F83C0025
:1010F80010BD00BF0223026880F83D30936803F0FA
:101108000703062B03D0136843F001031360012380
:1011180080F83D30002070470223026880F83D3097
:10112800116A41F211130B4043B9116A40F244436A
:101138000B401BB9136823F001031360012380F8E7
:101148003D300020704700BF0368DA6842F00102B2
:10115800DA609A6802F00702062A03D01A6842F099
:1011680001021A60002070470368DA6822F0010261
:10117800DA60196A41F211120A4042B9196A40F25A
:1011880044420A401AB91A6822F001021A60002083
:10119800704700BFF8B590F83D40E4B2022C29D062
:1011A80090F83D30012B1CD004461346006A226893
:1011B800114F124E124DC7630664C5642C3206F0F7
:1011C800AFFDA8B92368DA6842F48072DA609A68D9
:1011D80002F00702062A0ED01A6842F001021A60CD
:1011E800F8BD19B1022380F83D30DDE7002AF9D0B7
:1011F8000120F8BD2046F8BD3D2B0008512B000802
:10120800252E00080268D36810B523F480730446BD
:10121800006AD36006F00AFE2268116A41F21113CF
:101228000B4043B9116A40F244430B401BB91368A1
:1012380023F001031360012384F83D30002010BD22
:10124800704700BF704700BF0223026810B580F8DE
:101258003D30116A41F211130B40044643B9116A3B
:1012680040F244430B401BB9136823F00103136099
:101278002046FFF7E7FF002084F83D0084F83C0093
:1012880010BD00BF036801F01F01186A01228A40DF
:1012980020EA020010B41862196A0D4C0A43A342EE
:1012A8001A620FD00B4A93420CD09A6802F00702D8
:1012B800062A03D01A6842F001021A6000205DF87D
:1012C800044B70475A6C42F400425A64EDE700BF81
:1012D800000001400004014003681A481A6A10B46B
:1012E80001F01F040121A14022EA01021A621A6AD0
:1012F8001A62834214D0144A934211D0196A41F2F7
:1013080011120A4042B9196A40F244420A401AB915
:101318001A6822F001021A6000205DF8044B704739
:10132800196A41F211120A40002AE7D1196A40F2FB
:1013380044420A40002AE1D15A6C22F400425A641D
:10134800DCE700BF000001400004014010B40C2994
:101358003ED8DFE801F0373D3D3D313D3D3D2B3D79
:101368003D3D07000368DA6842F01002DA60186A47
:101378001B4C01F01F0101228A4020EA0201196278
:10138800196AA34242EA01021A6223D0154A93421B
:1013980020D09A6802F00702062A03D01A6842F0A1
:1013A80001021A6000205DF8044B70470368DA6890
:1013B80042F00802DA60DAE70368DA6842F0040209
:1013C800DA60D4E70368DA6842F00202DA60CEE74E
:1013D8000368CCE75A6C42F400425A64D9E700BF6C
:1013E800000001400004014010B40C2941D8DFE896
:1013F80001F03A404040344040402E404040070011
:101408000368DA6822F01002DA60186A224C01F0E8
:101418001F0101228A4020EA02021A621A6A1A622D
:10142800A34228D01D4A934225D0196A41F21112CD
:101438000A4042B9196A40F244420A401AB91A6885
:1014480022F001021A6000205DF8044B704703681F
:10145800DA6822F00802DA60D7E70368DA6822F06F
:101468000402DA60D1E70368DA6822F00202DA607F
:10147800CBE70368C9E7196A41F211120A40002A4A
:10148800D3D1196A40F244420A40002ACDD15A6C9D
:1014980022F400425A64C8E70000014000040140F9
:1014A800F8B590F83D40E4B2022C11D090F83D40D8
:1014B800012C0FD00D4604460C2D00F28780DFE882
:1014C80005F00F85858542858585598585856F0059
:1014D8002046F8BD002A7BD0022480F83D40E9E789
:1014E8002668406A4049DFF810E1404FC163C0F800
:1014F80040E01146C76406F1340206F011FC0028EA
:1015080068D12268D36843F40073D360116A3848FD
:1015180005F01F050123AB4021EA03011162116A9E
:10152800824243EA0103136256D0324B9A4253D0A7
:10153800936803F00703062B53D0136843F00103A5
:1015480013600020F8BD2668806A2749DFF8A8E004
:10155800264FC163C0F840E01146C76406F138025F
:1015680006F0DEFB002835D12268D36843F4806397
:10157800D360CBE72668C06A1B49DFF87CE01B4FC5
:10158800C163C0F840E01146C76406F13C0206F0AA
:10159800C7FBF8B92268D36843F40063D360B5E7A2
:1015A8002668006B1049DFF850E0104FC163C0F89F
:1015B80040E01146C76406F1400206F0B1FB48B9A5
:1015C8002268D36843F48053D3609FE702689DE79D
:1015D800002B81D00120F8BD536C43F400435364C1
:1015E800A6E70020F8BD00BF092C0008252E00083A
:1015F8000000014000040140592C000838B50C4691
:1016080005460C2910D8DFE801F0450F0F0F070F2A
:101618000F0F3C0F0F0F33000268806AD36823F462
:101628008063D36006F002FC2B682748196A04F02F
:101638001F040122A24021EA02021A621A6A1A62EF
:10164800834230D0214A93422DD0196A41F21112B7
:101658000A4042B9196A40F244420A401AB91A6863
:1016680022F001021A60012385F83D30002038BDC0
:101678000268006BD36823F48053D36006F0D6FB6E
:10168800D2E70268C06AD36823F40063D36006F027
:10169800CDFBC9E70268406AD36823F40073D360BE
:1016A80006F0C4FBC0E7196A41F211120A40002A89
:1016B800CBD1196A40F244420A40002AC5D15A6C7B
:1016C80022F400425A64C0E70000014000040140CF
:1016D800704700BF704700BF0223026810B580F84A
:1016E8003D30116A41F211130B40044643B9116AA7
:1016F80040F244430B401BB9136823F00103136005
:101708002046FFF7E7FF002084F83D0084F83C00FE
:1017180010BD00BF036801F01F01186A01228A404A
:1017280020EA020010B41862196A0D4C0A43A34259
:101738001A620FD00B4A93420CD09A6802F0070243
:10174800062A03D01A6842F001021A6000205DF8E8
:10175800044B70475A6C42F400425A64EDE700BFEC
:101768000000014000040140036830B401F01F018B
:101778001C6A194D01228A4024EA02021A621A6A76
:101788001A62AB4216D0154A934213D0196A41F235
:1017980011120A4042B9196A40F244420A401AB981
:1017A8001A6822F001021A60012380F83D3030BC2B
:1017B80000207047196A41F211120A40002AE5D147
:1017C800196A40F244420A40002ADFD15A6C22F4D6
:1017D80000425A64DAE700BF0000014000040140FB
:1017E80010B40C293ED8DFE801F0373D3D3D313DCE
:1017F8003D3D2B3D3D3D07000368DA6842F010028D
:10180800DA60186A1B4C01F01F0101228A4020EAA5
:1018180002011962196AA34242EA01021A6223D03C
:10182800154A934220D09A6802F00702062A03D08C
:101838001A6842F001021A6000205DF8044B7047F4
:101848000368DA6842F00802DA60DAE70368DA68FF
:1018580042F00402DA60D4E70368DA6842F0020270
:10186800DA60CEE70368CCE75A6C42F400425A6467
:10187800D9E700BF000001400004014010B40C2962
:1018880041D8DFE801F03A404040344040402E4023
:10189800404007000368DA6822F01002DA60186A2C
:1018A800224C01F01F0101228A4020EA02021A623A
:1018B8001A6A1A62A34228D01D4A934225D0196A8F
:1018C80041F211120A4042B9196A40F244420A40F0
:1018D8001AB91A6822F001021A6000205DF8044B58
:1018E80070470368DA6822F00802DA60D7E703680D
:1018F800DA6822F00402DA60D1E70368DA6822F0D5
:101908000202DA60CBE70368C9E7196A41F21112EB
:101918000A40002AD3D1196A40F244420A40002AF8
:10192800CDD15A6C22F400425A64C8E70000014045
:1019380000040140F8B590F83D40E4B2022C11D003
:1019480090F83D40012C0FD00D4604460C2D00F2B6
:101958008780DFE805F00F8585854285858559856F
:1019680085856F002046F8BD002A7BD0022480F8C8
:101978003D40E9E72668406A4049DFF810E1404FFA
:10198800C163C0F840E01146C76406F1340206F0AE
:10199800C7F9002868D12268D36843F40073D3607C
:1019A800116A384805F01F050123AB4021EA0301FD
:1019B8001162116A824243EA0103136256D0324B24
:1019C8009A4253D0936803F00703062B53D0136849
:1019D80043F0010313600020F8BD2668806A274998
:1019E800DFF8A8E0264FC163C0F840E01146C7649D
:1019F80006F1380206F094F9002835D12268D36838
:101A080043F48063D360CBE72668C06A1B49DFF8DC
:101A18007CE01B4FC163C0F840E01146C76406F183
:101A28003C0206F07DF9F8B92268D36843F40063F4
:101A3800D360B5E72668006B1049DFF850E0104F17
:101A4800C163C0F840E01146C76406F1400206F0E1
:101A580067F948B92268D36843F48053D3609FE795
:101A680002689DE7002B81D00120F8BD536C43F438
:101A780000435364A6E70020F8BD00BF092C000806
:101A8800252E00080000014000040140592C0008E0
:101A980038B50C4605460C2910D8DFE801F0450F8B
:101AA8000F0F070F0F0F3C0F0F0F33000268806AEC
:101AB800D36823F48063D36006F0B8F92B6827480D
:101AC800196A04F01F040122A24021EA02021A62E4
:101AD8001A6A1A62834230D0214A93422DD0196A79
:101AE80041F211120A4042B9196A40F244420A40CE
:101AF8001AB91A6822F001021A60012385F83D30EC
:101B0800002038BD0268006BD36823F48053D3608B
:101B180006F08CF9D2E70268C06AD36823F4006340
:101B2800D36006F083F9C9E70268406AD36823F4F2
:101B38000073D36006F07AF9C0E7196A41F211120E
:101B48000A40002ACBD1196A40F244420A40002ACE
:101B5800C5D15A6C22F400425A64C0E70000014023
:101B680000040140704700BF704700BF02230268AD
:101B780010B580F83D30116A41F211130B4004464C
:101B880043B9116A40F244430B401BB9136823F070
:101B9800010313602046FFF7E7FF002084F83D00AB
:101BA80084F83C0010BD00BF0368012201F01F004B
:101BB800196A824021EA02011962196A0A431A6203
:101BC8009A6802F00702062A03D01A6842F0010256
:101BD8001A600020704700BF036801F01F01186AEF
:101BE80001228A4020EA02021A621A6A1A62196AF3
:101BF80041F211120A4042B9196A40F244420A40BD
:101C08001AB91A6822F001021A600020704700BF52
:101C18000C2935D8DFE801F02E3434342834343434
:101C28002234343407000368DA6842F01002DA60BC
:101C3800186A01F01F0101228A4020EA0201196294
:101C4800196A0A431A629A6802F00702062A03D040
:101C58001A6842F001021A60002070470368DA68C7
:101C680042F00802DA60E3E70368DA6842F0040247
:101C7800DA60DDE70368DA6842F00202DA60D7E783
:101C88000368D5E70C2939D8DFE801F0323838384D
:101C98002C3838382638383807000368DA6822F0D4
:101CA8001002DA60186A01F01F0101228A4020EA56
:101CB80002021A621A6A1A62196A41F211120A4079
:101CC80042B9196A40F244420A401AB91A6822F025
:101CD80001021A60002070470368DA6822F00802DF
:101CE800DA60DFE70368DA6822F00402DA60D9E72D
:101CF8000368DA6822F00202DA60D3E70368D1E702
:101D0800F8B590F83D40E4B2022C10D090F83D4070
:101D1800012C0ED00D4604460C2D77D8DFE805F0CF
:101D28000F767676397676764E7676766200204627
:101D3800F8BD002A6CD0022480F83D40EAE721680B
:101D4800406ADFF8E0E0354F354EC0F83CE0076404
:101D5800C664343105F0E4FF00285BD12368DA68F3
:101D680042F40072DA60196A05F01F050122AA40E0
:101D780021EA02011962196A0A431A629A6802F092
:101D88000702062A48D01A6842F001021A600020A9
:101D9800F8BD2168806ADFF88CE0204F204EC0F83B
:101DA8003CE00764C664383105F0BAFF002831D139
:101DB8002368DA6842F48062DA60D4E72168C06A8E
:101DC800DFF860E0154F164EC0F83CE00764C664C3
:101DD8003C3105F0A5FFE8B92368DA6842F40062EF
:101DE800DA60C0E72168006BDFF838E00B4F0C4E73
:101DF800C0F83CE00764C664403105F091FF48B97B
:101E08002368DA6842F48052DA60ACE70368AAE72C
:101E1800002B90D00120F8BD0020F8BDB92B000898
:101E2800252E0008692B000838B50C4605460C29F4
:101E380010D8DFE801F03F0F0F0F070F0F0F360F15
:101E48000F0F2D000268806AD36823F48063D36083
:101E580005F0ECFF2B6804F01F04196A0122A24068
:101E680021EA02021A621A6A1A62196A41F2111206
:101E78000A4042B9196A40F244420A401AB91A683B
:101E880022F001021A60012385F83D30002038BD98
:101E98000268006BD36823F48053D36005F0C6FF53
:101EA800D8E70268C06AD36823F40063D36005F0FA
:101EB800BDFFCFE70268406AD36823F40073D3609C
:101EC80005F0B4FFC6E700BF704700BF704700BF0A
:101ED8000223026810B580F83D30116A41F21113EF
:101EE8000B40044643B9116A40F244430B401BB906
:101EF800136823F0010313602046FFF7E7FF002073
:101F080084F83D0084F83C0010BD00BF03680F4909
:101F18001A6A22F001021A621A6A42F001021A626F
:101F28001A6A22F010021A621A6A8B4242F01002F0
:101F38001A6204D0064A934201D0002070475A6CB6
:101F480042F400425A640020704700BF000001407C
:101F580000040140036819491A6A22F001021A6252
:101F68001A6A1A621A6A22F010021A621A6A1A6245
:101F78008B4212D0124A93420FD0196A41F21112C1
:101F88000A4042B9196A40F244420A401AB91A682A
:101F980022F001021A6000207047196A41F21112FA
:101FA8000A40002AE9D1196A40F244420A40002A4C
:101FB800E3D15A6C22F400425A64DEE70000014083
:101FC8000004014003681349DA6842F00202DA604B
:101FD800DA6842F00402DA601A6A22F001021A6230
:101FE8001A6A42F001021A621A6A22F010021A6290
:101FF8001A6A8B4242F010021A6204D0064A9342CF
:1020080001D0002070475A6C42F400425A64002004
:10201800704700BF000001400004014003681D49EB
:10202800DA6822F00202DA60DA6822F00402DA6082
:102038001A6A22F001021A621A6A1A621A6A22F0ED
:1020480010021A621A6A1A628B4212D0124A93421A
:102058000FD0196A41F211120A4042B9196A40F2C6
:1020680044420A401AB91A6822F001021A60002094
:102078007047196A41F211120A40002AE9D1196A17
:1020880040F244420A40002AE3D15A6C22F400424A
:102098005A64DEE70000014000040140704700BFB9
:1020A800704700BF0223026810B580F83D30116AFE
:1020B80041F211130B40044643B9116A40F24443FC
:1020C8000B401BB9136823F0010313602046FFF788
:1020D800E7FF002084F83D0084F83C0010BD00BFF5
:1020E800D1B1042916D003681A6A22F001021A62D3
:1020F8001A6A42F001021A621A6A22F010021A627F
:102108001A6A42F010021A621A6842F001021A6052
:10211800002070470368EFE703681A6A22F001029B
:102128001A621A6A42F001021A62EDE701B3042941
:102138001CD003681A6A22F001021A621A6A1A622B
:102148001A6A22F010021A621A6A1A62196A41F2AD
:1021580011120A4042B9196A40F244420A401AB9B7
:102168001A6822F001021A60002070470368E7E746
:1021780003681A6A22F001021A621A6A1A62E5E70B
:1021880000292ED004291ED003681A6A22F0010201
:102198001A621A6A42F001021A621A6A22F01002DE
:1021A8001A621A6A42F010021A62DA6842F00202EF
:1021B800DA60DA6842F00402DA601A6842F0010272
:1021C8001A600020704703681A6A22F010021A6227
:1021D8001A6A42F010021A62DA6842F00402DA60FF
:1021E800EBE703681A6A22F001021A621A6A42F0DF
:1021F80001021A62DA6842F00202DA60DDE700BF23
:1022080003681A6AD9B922F001021A621A6A1A62B4
:10221800DA6822F00202DA60196A41F211120A4001
:1022280042B9196A40F244420A401AB91A6822F0BF
:1022380001021A60012380F83D300020704704290C
:1022480013D022F001021A621A6A1A621A6A22F07C
:1022580010021A621A6A1A62DA6822F00202DA6056
:10226800DA6822F00402DA60D6E722F010021A6275
:102278001A6A1A62DA6822F00402DA60CCE700BF50
:102288002DE9F84390F83D40BDF82050E4B2022C07
:102298000ED090F83D40012C0DD004291E4604466E
:1022A80016D03C2959D0002936D00020BDE8F88343
:1022B8002046BDE8F883002A00F08F80002B00F04C
:1022C8008C800224042980F83D401E460446E8D14B
:1022D8002168806A434BDFF814E1434FC3633246F9
:1022E8002B46C0F840E0C764383105F019FD0028D6
:1022F80051D12368DA6842F48062DA601A6842F0E1
:1023080001021A601A6A22F010021A621A6A42F06E
:1023180010021A62BDE8F8832168406A314B334FD6
:10232800314EC36307642B46C664343105F0F8FCAC
:10233800002830D12368DA6842F40072DA601A683B
:1023480042F001021A601A6A22F001021A621A6A3D
:1023580042F001021A62BDE8F8832168406ADFF89A
:102368008490DFF88880204FC0F83C90C0F8408007
:10237800C76434312B4605F0D3FC60B92168A06AE4
:102388003246C0F83C902B46C0F84080C7643831CC
:1023980005F0C6FC10B10120BDE8F88323681A686F
:1023A80042F001021A601A6A22F001021A621A6ADD
:1023B80042F001021A621A6A22F010021A621A6ABC
:1023C80042F010021A62DA6842F40072DA60DA68DF
:1023D80042F48062DA60BDE8F883002D3FF471AF03
:1023E800D9E700BF692B0008252E0008B92B000883
:1023F80010B50368044600292FD004293BD01A6A77
:10240800406A22F001021A621A6A1A621A6A22F0F3
:1024180010021A621A6A1A62DA6822F40072DA6022
:10242800DA6822F48062DA6005F000FDA06A05F03F
:10243800FDFC2268116A41F211130B4043B9116A7D
:1024480040F244430B401BB9136823F001031360A7
:10245800012384F83D30002010BD1A6A406A22F03A
:1024680001021A621A6A1A62DA6822F40072DA60E1
:1024780005F0DCFCDDE71A6A806A22F010021A62B5
:102488001A6A1A62DA6822F48062DA6005F0CEFC11
:10249800CFE700BFF8B590F83D40E4B2022C19D060
:1024A80090F83D40012C2DD0B2F5006F15460E4630
:1024B800044632D010D8B2F5007F4BD0B2F5806F09
:1024C8004ED0B2F5807F10D1006A22682F49DFF81C
:1024D800CCC027E02046F8BDB2F5005F34D0B2F595
:1024E800804F49D0B2F5805F40D0069A236842EA0F
:1024F80006019964DA6801211543DD60002084F83B
:102508003D10F8BD002B3DD00224B2F5006F80F8D5
:102518003D4015460E460446CCD1C06A22681C4987
:10252800DFF87CC0C1630699DFF878E0C0F840C0E6
:102538000F0AC0F84CE019464C327B1C05F0F0FB42
:102548000028D2D00120F8BD406B22681149DFF87D
:1025580058C0E7E7406A22680D49DFF844C0E1E760
:10256800806A22680A49DFF838C0DBE7006B226816
:102578000749DFF82CC0D5E7806B22680649DFF8E9
:102588002CC0CFE7069C002CBED0DBE73D2B000813
:10259800092C000805420008FD2D0008512B0008F1
:1025A800592C0008252E000819420008112E000891
:1025B800B1F5006F38B50C4605463DD00FD9B1F5D9
:1025C800005F27D0B1F5804F18D0B1F5805F27D0D4
:1025D8002B68D96821EA0404DC60002038BDB1F515
:1025E800007F23D0B1F5806F0ED0B1F5807FEFD199
:1025F800006A05F01BFC0028EAD038BD806B05F0A6
:1026080015FC0028E4D0F8E7806A05F00FFC0028E4
:10261800DED0F2E7406B05F009FC0028D8D0ECE7E3
:10262800006B05F003FC0028D2D0E6E7406A05F00D
:10263800FDFB0028CCD0E0E7C06A05F0F7FB0028D6
:10264800C6D0DAE7F8B590F83D40E4B2022C19D0CC
:1026580090F83D40012C2DD0B2F5006F15460E467E
:10266800044632D010D8B2F5007F4BD0B2F5806F57
:102678004ED0B2F5807F10D1006A21682F4ADFF86A
:10268800CCC027E02046F8BDB2F5005F34D0B2F5E3
:10269800804F49D0B2F5805F40D0069A236842EA5D
:1026A80006019964DA6801211543DD60002084F889
:1026B8003D10F8BD002B3DD00224B2F5006F80F824
:1026C8003D4015460E460446CCD1C06A21681C4AD6
:1026D800DFF87CC0C263069ADFF878E0C0F840C033
:1026E800170AC0F84CE01A464C317B1C05F018FB61
:1026F8000028D2D00120F8BD406B2168114ADFF8CC
:1027080058C0E7E7406A21680D4ADFF844C0E1E7AE
:10271800806A21680A4ADFF838C0DBE7006B216865
:10272800074ADFF82CC0D5E7806B2168064ADFF836
:102738002CC0CFE7069C002CBED0DBE73D2B000861
:10274800692B000805420008FD2D0008512B0008E0
:10275800B92B0008252E000819420008112E000880
:10276800B1F5006F38B50C4605463DD00FD9B1F527
:10277800005F27D0B1F5804F18D0B1F5805F27D022
:102788002B68D96821EA0404DC60002038BDB1F563
:10279800007F23D0B1F5806F0ED0B1F5807FEFD1E7
:1027A800006A05F043FB0028EAD038BD806B05F0CD
:1027B8003DFB0028E4D0F8E7806A05F037FB0028E5
:1027C800DED0F2E7406B05F031FB0028D8D0ECE70B
:1027D800006B05F02BFB0028D2D0E6E7406A05F035
:1027E80025FB0028CCD0E0E7C06A05F01FFB0028D5
:1027F800C6D0DAE790F83C20012A03460ED030B460
:10280800056801240220002283F83D006961104612
:1028180083F83D4083F83C2030BC70470220704765
:1028280090F83C30012B70B4044633D04B68012536
:10283800022084F83C5084F83D00002B2DD0AB4298
:102848000CD1C868002846D126680B69B0688D6825
:1028580020F47F4040EA03232B43B3600C2A10D8AE
:10286800DFE802F0310F0F0F290F0F0F070F0F0FBF
:1028780021000B682268002B3ED1D36923F0800326
:10288800D3610023012284F83D2084F83C301846A7
:1028980070BC7047022070BC70472068836823F4BE
:1028A8007F438360DAE70B68226853B3D36943F444
:1028B8000043D361E5E70B682268C3B1936943F429
:1028C80000439361DDE70B6822685BB1936943F0CD
:1028D80080039361D5E7002284F83D30184684F8D8
:1028E8003C20D5E7936923F080039361C9E7936996
:1028F80023F400439361C4E7D36943F08003D361B1
:10290800BFE7D36923F40043D361BAE790F83C30BA
:10291800012B30D002220368F0B480F83D209A6879
:102928000C6822F47F4222F077020125402C80F8BF
:102938003C509A603BD052D9602C6ED01DD9702C77
:102948005CD0B4F5005F0DD10A1D64CA9C682A43A7
:1029580024F47F410A4342EA06229A609A6842F4C4
:1029680080429A600023012280F83D2080F83C30A4
:10297800F0BC1846704702207047502CF2D11D6AEF
:102988001E6A4C68CF6826F0010119629A6925F021
:102998000A0122F0F00242EA071221439A61196201
:1029A8009A6822F0700242F057029A60DAE71D6ACC
:1029B8001E6A4C68CF6826F0010119629A6925F0F1
:1029C8000A0122F0F00242EA071221439A611962D1
:1029D8009A6822F0700242F047029A60C2E7102C0F
:1029E80004D033D9202C01D0302CBBD19A6844F0C4
:1029F800070422F0700214439C60B3E70A1D64CAFE
:102A08009C682A4324F47F410A4342EA06229A60DA
:102A18009A6842F077029A60A4E71C6A4D68CE680B
:102A280024F010041C6299691A6A21F4704122F09A
:102A3800A00242EA051241EA063199611A629A68CF
:102A480022F0700242F067029A608BE7002CCDD02A
:102A580088E700BF0268536823F080031943516078
:102A68000020704790F83C20012A38B501D1022097
:102A780038BD0125022380F83C5080F83D300446DB
:102A8800FEF7B2FA68B92368DA6822F04002DA6021
:102A9800DA6822F48042DA6084F83D5084F83C0019
:102AA80038BD002384F83D50284684F83C3038BDB2
:102AB80090F83C20012A38B501D1022038BD012503
:102AC800022380F83C5080F83D300446FEF78CFA2B
:102AD80068B92368DA6842F04002DA60DA6822F4FA
:102AE8008042DA6084F83D5084F83C0038BD002309
:102AF80084F83D50284684F83C3038BD0C2914D859
:102B0800DFE801F0101313130D1313130A13131333
:102B180007000368186C70470368D86B7047036830
:102B2800986B70470368586B70470020704700BF68
:102B3800704700BF08B5806B012380F83D3007F06F
:102B480089F908BD704700BF08B5806B012380F87C
:102B58003D30FFF7F7FF08BD704700BF704700BF63
:102B680010B5846B626A0123824284F83D300FD02D
:102B7800A36A834213D0E36A834213D0236B834250
:102B880005D02046FFF7EAFF0023237710BD08236E
:102B980023772046FFF7E2FF0023237710BD0223A7
:102BA8002377EEE704232377EBE700BF704700BFE6
:102BB80010B5846B626A0123824284F83D300FD0DD
:102BC800A36A834213D0E36A834213D0236B834200
:102BD80005D02046FFF7EAFF0023237710BD08231E
:102BE80023772046FFF7E2FF0023237710BD022357
:102BF8002377EEE704232377EBE700BF704700BF96
:102C080010B5846B626A0123824284F83D300FD08C
:102C1800A36A834213D0E36A834213D0236B8342AF
:102C280005D02046FFF7EAFF0023237710BD0823CD
:102C380023772046FFF7E2FF0023237710BD022306
:102C48002377EEE704232377EBE700BF704700BF45
:102C580010B5846B626A0123824284F83D300FD03C
:102C6800A36A834213D0E36A834213D0236B83425F
:102C780005D02046FFF7EAFF0023237710BD08237D
:102C880023772046FFF7E2FF0023237710BD0223B6
:102C98002377EEE704232377EBE700BF704700BFF5
:102CA80003681A69910710B5044602D5DA689207D5
:102CB80062D41A69500702D5DA68510749D41A69EB
:102CC800120702D5DA68100731D41A69D20602D57C
:102CD800DA68D00618D41A69D10702D5DA68D2079B
:102CE8006BD41A69100602D5DA6811066DD41A6910
:102CF800520602D5DA68500657D41A69910602D5E9
:102D0800DA68920649D410BD6FF010021A61DB69C7
:102D1800082213F4407F2277204661D1FFF71CFF79
:102D28002046FFF76BFF002223682277D3E76FF076
:102D380008021A61DB69042299072277204655D1D7
:102D4800FFF70AFF2046FFF759FF00222368227782
:102D5800BBE76FF004021A619B69022213F4407FFB
:102D6800227720463FD1FFF7F7FE2046FFF746FFC0
:102D7800002223682277A2E76FF002021A619B699A
:102D880001229B07027728D1FFF7E6FE2046FFF7CE
:102D980035FF0022236822778BE76FF02002204658
:102DA8001A61BDE8104001F027BA6FF040021A61BD
:102DB8002046FFF773FF23689FE76FF001021A614F
:102DC800204607F047F823688BE76FF080021A6106
:102DD800204601F025FA236889E7FFF7BFFED8E708
:102DE800FFF7BCFE9FE7FFF7B9FEC1E7FFF7B6FEA6
:102DF800ABE700BF08B5806B012380F83D30FFF7D3
:102E08004DFF08BD704700BF08B5806B012380F8EF
:102E18003D30FFF7F7FF08BD704700BF08B5806B6E
:102E2800012380F83D30FFF7F7FF08BD90F83D001B
:102E3800704700BF90F83D00704700BF90F83D0014
:102E4800704700BF90F83D00704700BF90F83D0004
:102E5800704700BF90F83D00704700BF404A0368C4
:102E68009042F0B44FD0B0F1804F63D0A2F57C42CD
:102E7800904230D002F5806290422CD002F58062F8
:102E8800904228D002F57842904224D002F5705240
:102E9800904224D002F58062904220D002F58062F0
:102EA80090421CD0A2F59832904218D002F5806268
:102EB800904214D002F58062904210D04A698C6822
:102EC800096823F08003134303600123C46281620D
:102ED800F0BC436170474A6823F070031343CA6823
:102EE8004C69204D8F680E6823F440731A4322F012
:102EF80080022243A8420260C762866214D001237E
:102F08004361F0BC70474C68CA684D6923F0700390
:102F18001C4324F44074224322F080022A430260B6
:102F28008B68C3620B6883620B6903630123436187
:102F3800F0BC70474C68CA684D698E68096823F010
:102F48007003234323F44073134323F080032B437C
:102F580003600123C6628162F0BC4361704700BF11
:102F68000000014000040140C0B190F83D3010B5A8
:102F780003F0FF02044663B12146022351F8040B13
:102F880084F83D30FFF76AFF012384F83D300020C4
:102F980010BD80F83C20FEF78BF8EDE70120704764
:102FA800C0B190F83D3010B503F0FF02044663B19C
:102FB8002146022351F8040B84F83D30FFF74EFFF9
:102FC800012384F83D30002010BD80F83C20FEF736
:102FD80037F9EDE701207047C0B190F83D3010B5E2
:102FE80003F0FF02044663B12146022351F8040BA3
:102FF80084F83D30FFF732FF012384F83D3000208C
:1030080010BD80F83C20FEF763FBEDE70120704718
:10301800C0B190F83D3010B503F0FF02044663B12B
:103028002146022351F8040B84F83D30FFF716FFC0
:10303800012384F83D30002010BD80F83C20FEF7C5
:1030480091FDEDE70120704710B390F83D3070B561
:1030580003F0FF0204460D46ABB12146022351F8A6
:10306800040B84F83D30FFF7F9FE23681A6822F054
:1030780008021A601A68012645EA02011960002050
:1030880084F83D6070BD80F83C20FEF71DFFE4E742
:1030980001207047002854D02DE9F84F90F83D30B2
:1030A80005460C4603F0FF02002B45D029460223B3
:1030B80051F8040B85F83D30836823F4804323F0EE
:1030C80007038360FFF7CAFE2968D4F818B0D1F85F
:1030D80008C08A692769A368D4F81CA0E668086A4A
:1030E800D4F82090D4F81480D4F800E0646822F46E
:1030F800407222F0030242EA0B223F01134347EADF
:103108000A2A4AEA060620F0AA0023F47C4346EA83
:10311800093940EA081823F0FC034CEA0E0249EA90
:10312800030348EA040401268A6000208B610C62CC
:1031380085F83D60BDE8F88F80F83C20FEF7AEFFCB
:10314800B4E70120704700BFF0B4046A8F680E68C6
:10315800154D24F010040462036A4468826923F060
:10316800200322F4E642A84243EA071342EA062271
:103178000AD005F58065A84206D049684460826196
:10318800F0BC816303627047CD688F6923F08003C8
:1031980043EA05134D6924F4406444EA850423F0A6
:1031A800400344EA8704E8E70000014090F83C3017
:1031B800012B1CD010B504460223012084F83C00E2
:1031C80084F83D300C2A0BD8DFE802F0170A0A0A07
:1031D800070A0A0A1B0A0A0A13002068FFF7B4FF45
:1031E8000123002084F83D3084F83C0010BD022003
:1031F80070472068FDF7D0FEF2E72068FDF76AFE09
:10320800EEE72068FDF796FEEAE700BF38B590F8CC
:103218003C30012B2BD00D4602230121044680F8B7
:103228003C1080F83D300C2A1AD8DFE802F0351936
:103238001919071919194719191922000068294677
:10324800FFF782FF23682869996941F40061996151
:10325800996921F4806199619A6942EA00229A6128
:103268000123002084F83D3084F83C0038BD02205A
:1032780038BD00682946FDF78FFE23682869D9699B
:1032880041F40061D961D96921F48061D961DA69B1
:1032980042EA0022DA61E3E729460068FDF71AFEF0
:1032A80023682A69996941F008019961996921F0AF
:1032B8000401996199690A439A61D1E7294600682E
:1032C800FDF738FE23682A69D96941F00801D961F8
:1032D800D96921F00401D961D9690A43DA61BFE7E4
:1032E80070B4046A1B4E24F001040462B04284697D
:1032F800056A1DD0B0F1804F1AD0A6F57C46B042C1
:1033080016D006F58066B04212D006F58066B04247
:103318000ED006F57846B0420AD006F57056B0428F
:1033280006D0A6F59436B04202D044F0010202E07D
:1033380024F0030422431B01DBB222F0F00225F043
:103348000A0501F00A010D431A438261056270BC47
:10335800704700BF00000140F8B590F83C30012BE1
:1033680039D00D4602230121044680F83C1080F82C
:103378003D30002A31D0042A3FD0082A63D00168A2
:103388002E68086A6F68EA68AD6820F480500862A1
:10339800CB69086A23F440733603120343EA072310
:1033A80092B206F4204623F4704320F420401343DD
:1033B80046EA0002CB610A62CB6923F44063CB6121
:1033C800CB6943EA0525CD610123002084F83D300F
:1033D80084F83C00F8BD0220F8BD95E80600EB68CB
:1033E8000068FFF77DFF2368AA68996921F00C013E
:1033F800996199690A439A61E6E703682E68186A31
:103408006F68E968AD6820F0100018629A69186A58
:1034180022F440723601090342EA072289B206F013
:10342800A00622F4704220F0A0000A4346EA0001F8
:103438009A6119629A6922F440629A619A6942EA29
:1034480005259D61C0E703682E68186A6A68E968FF
:10345800AF6820F480701862DD69186A25F0030EE1
:10346800090135024EEA0202C9B205F4206522F0CC
:10347800F00220F420600A4345EA0001DA6119628B
:10348800DA6922F00C02DA61DA691743DF619BE737
:103498009A427DD02DE9F04190F83C50012D88B03A
:1034A80058D00C460968019105466168A768E66826
:1034B800206902919846616903974FF0010E022333
:1034C80085F83CE085F83D30049606900791002A7F
:1034D80060D0042A42D0B8F1000F46D0B8F1040FEA
:1034E8002FD12B68E769186A216AA66920F01000B5
:1034F80018629A69186A22F440723401090342EA90
:10350800072289B204F0A00422F4704220F0A0003F
:103518000A4344EA00019A6119629A6922F44062F6
:103528009A619A6822F070029A609A6842F0600282
:103538009A609A6822F007029A609A6842F0060236
:103548009A600020012385F83D3085F83C0008B0DA
:10355800BDE8F081022008B0BDE8F081286801A923
:10356800FFF7F2FDB8F1000FB8D104F118010EC948
:103578002868FFF7B5FE2B689A6922F00C029A6159
:103588009A6822F070029A609A6842F05002CFE777
:1035980001207047286801A9FDF79CFC9BE700BF44
:1035A80010B4846824F47F4421430A4342EA032385
:1035B80083605DF8044B704710B401F01F01046A82
:1035C80001238B4024EA03030362036A5DF8044B7A
:1035D8008A40134303627047704700BF002855D0E4
:1035E80030B590F83D3089B004460D4603F0FF022F
:1035F800002B46D02146022351F8040B84F83D30B5
:10360800FFF72CFC20682968AB680322FFF768FEE7
:103618002068E96882696B6822F00C02826182691D
:1036280013438361436843F08003436083680291D6
:1036380023F070038360836843F0400383608368EA
:1036480023F007038360836843F004038360002545
:10365800702301A90193059506950795049503958F
:10366800FFF772FD23685A6822F070025A605A68A0
:10367800012142F0500228465A6084F83D1009B0F2
:1036880030BD80F83C20FFF7A7FFB3E70120704763
:10369800704700BF0223026810B580F83D30116AF8
:1036A80041F211130B40044643B9116A40F24443F6
:1036B8000B401BB9136823F0010313602046FFF782
:1036C800E7FF002084F83D0084F83C0010BD00BFEF
:1036D80010B50446012200210068FFF76DFF22683B
:1036E800936803F00703062B03D0136843F0010324
:1036F8001360002010BD00BF002110B504460A4623
:103708000068FFF759FF2268116A41F211130B4054
:1037180043B9116A40F244430B401BB9136823F0C4
:1037280001031360002010BD10B504460068C3688B
:1037380043F00203C36001220021FFF73DFF226826
:10374800936803F00703062B03D0136843F00103C3
:103758001360002010BD00BF002110B504460A46C2
:103768000068FFF729FF2368DA6822F00202DA60AE
:10377800196A41F211120A4042B9196A40F24442E8
:103788000A401AB91A6822F001021A60002010BD16
:10379800F8B590F83D40E4B2022C32D090F83D30B4
:1037A800012B26D0044616460D460068164F002108
:1037B8000122FFF701FF2168606A144BDFF850E02F
:1037C800C3632A463346C0F840E0C764343104F086
:1037D800A7FAA0B92368DA6842F40072DA609A6836
:1037E80002F00702062A0DD01A6842F001021A6098
:1037F800F8BD01B91AB9022380F83D30D2E701209B
:10380800F8BD2046F8BD00BF252E0008692B00082A
:10381800B92B0008002110B504460A460068FFF7D6
:10382800CBFE2268606AD36823F40073D36004F087
:10383800FDFA2268116A41F211130B4043B9116A6B
:1038480040F244430B401BB9136823F00103136093
:10385800002010BD0368042201F01F00196A82408D
:1038680021EA02011962196A0A431A625A6C42F47F
:1038780000425A649A6802F00702062A03D01A68BE
:1038880042F001021A600020704700BF036801F08F
:103898001F01186A04228A4020EA02021A621A6A80
:1038A8001A62196A41F211120A4022B9196A40F2E1
:1038B80044420A407AB1196A41F211120A4042B9E7
:1038C800196A40F244420A401AB91A6822F0010201
:1038D8001A60002070475A6C22F400425A64EAE7E2
:1038E800042903682AD0082923D0E9B1DA6842F00C
:1038F8008002DA60186A01F01F0104228A4020EA77
:1039080002011962196A0A431A625A6C42F40042A7
:103918005A649A6802F00702062A03D01A6842F02D
:1039280001021A6000207047DA6842F00202DA6089
:10393800DCE7DA6842F00802DA60D7E7DA6842F0D2
:103948000402DA60D2E700BF042903683FD00829DF
:1039580038D0002931D0186A01F01F0104228A40AA
:1039680020EA02021A621A6A1A62196A40F244428A
:103978000A401AB9DA6822F08002DA60196A41F25C
:1039880011120A4022B9196A40F244420A407AB137
:10399800196A41F211120A4042B9196A40F24442C6
:1039A8000A401AB91A6822F001021A60002070470A
:1039B8005A6C22F400425A64EAE7DA6822F00202FA
:1039C800DA60C8E7DA6822F00802DA60C3E7DA6882
:1039D80022F00402DA60BEE7F8B590F83D40E4B2A0
:1039E800022C26D090F83D40012C24D004290D4605
:1039F80004462AD0082956D000293CD00268116A0A
:103A080005F01F050423AB4021EA03011162116A86
:103A18000B431362536C43F400435364936803F0FD
:103A28000703062B56D0136843F0010313600020E8
:103A3800F8BD2046F8BD0AB9002B32D1022404296A
:103A480080F83D400D460446D4D12668806A224954
:103A5800DFF88CE0214FC163C0F840E01146C7642D
:103A680006F1380204F05CF9D8B92268D36843F447
:103A78008063D360C3E72668406A1749DFF860E0CF
:103A8800164FC163C0F840E01146C76406F134021E
:103A980004F046F928B92268D36843F40073D36068
:103AA800ADE70120F8BD2668C06A0B49DFF830E0B1
:103AB8000A4FC163C0F840E01146C76406F13C02F2
:103AC80004F02EF90028ECD12268D36843F400638F
:103AD800D36094E70020F8BD092C0008252E0008C3
:103AE800592C0008042938B50C46054641D0082948
:103AF80036D061B32B6804F01F04196A0422A2406F
:103B080021EA02021A621A6A1A62196A41F2111249
:103B18000A4022B9196A40F244420A4092B1196A2D
:103B280041F211120A4042B9196A40F244420A406D
:103B38001AB91A6822F001021A60012385F83D308B
:103B4800002038BD5A6C22F400425A64E7E7026844
:103B5800406AD36823F40073D36004F067F9C9E7B7
:103B68000268C06AD36823F40063D36004F05EF986
:103B7800C0E70268806AD36823F48063D36004F0E6
:103B880055F9B7E70368042201F01F00196A82405B
:103B980021EA02011962196A0A431A625A6C42F44C
:103BA80000425A649A6802F00702062A03D01A688B
:103BB80042F001021A600020704700BF036801F05C
:103BC8001F01186A04228A4020EA02021A621A6A4D
:103BD8001A62196A41F211120A4022B9196A40F2AE
:103BE80044420A407AB1196A41F211120A4042B9B4
:103BF800196A40F244420A401AB91A6822F00102CE
:103C08001A60002070475A6C22F400425A64EAE7AE
:103C1800042903682AD0082923D0E9B1DA6842F0D8
:103C28008002DA60186A01F01F0104228A4020EA43
:103C380002011962196A0A431A625A6C42F4004274
:103C48005A649A6802F00702062A03D01A6842F0FA
:103C580001021A6000207047DA6842F00202DA6056
:103C6800DCE7DA6842F00802DA60D7E7DA6842F09F
:103C78000402DA60D2E700BF042903683FD00829AC
:103C880038D0002931D0186A01F01F0104228A4077
:103C980020EA02021A621A6A1A62196A40F2444257
:103CA8000A401AB9DA6822F08002DA60196A41F229
:103CB80011120A4022B9196A40F244420A407AB104
:103CC800196A41F211120A4042B9196A40F2444293
:103CD8000A401AB91A6822F001021A6000207047D7
:103CE8005A6C22F400425A64EAE7DA6822F00202C7
:103CF800DA60C8E7DA6822F00802DA60C3E7DA684F
:103D080022F00402DA60BEE7F8B590F83D40E4B26C
:103D1800022C26D090F83D40012C24D004290D46D1
:103D280004462AD0082956D000293CD00268116AD6
:103D380005F01F050423AB4021EA03011162116A53
:103D48000B431362536C43F400435364936803F0CA
:103D58000703062B56D0136843F0010313600020B5
:103D6800F8BD2046F8BD0AB9002B32D10224042937
:103D780080F83D400D460446D4D12668806A224921
:103D8800DFF88CE0214FC163C0F840E01146C764FA
:103D980006F1380203F0C4FFD8B92268D36843F4A7
:103DA8008063D360C3E72668406A1749DFF860E09C
:103DB800164FC163C0F840E01146C76406F13402EB
:103DC80003F0AEFF28B92268D36843F40073D360C8
:103DD800ADE70120F8BD2668C06A0B49DFF830E07E
:103DE8000A4FC163C0F840E01146C76406F13C02BF
:103DF80003F096FF0028ECD12268D36843F40063EF
:103E0800D36094E70020F8BD092C0008252E00088F
:103E1800592C0008042938B50C46054641D0082914
:103E280036D061B32B6804F01F04196A0422A2403B
:103E380021EA02021A621A6A1A62196A41F2111216
:103E48000A4022B9196A40F244420A4092B1196AFA
:103E580041F211120A4042B9196A40F244420A403A
:103E68001AB91A6822F001021A60012385F83D3058
:103E7800002038BD5A6C22F400425A64E7E7026811
:103E8800406AD36823F40073D36003F0CFFFC9E717
:103E98000268C06AD36823F40063D36003F0C6FFE6
:103EA800C0E70268806AD36823F48063D36003F0B4
:103EB800BDFFB7E70368042201F01F00196A8240BA
:103EC80021EA02011962196A0A431A625A6C42F419
:103ED80000425A6400207047036801F01F01186A05
:103EE80004228A4020EA02021A621A6A1A62196ACD
:103EF80041F211120A4022B9196A40F244420A40BA
:103F08007AB1196A41F211120A4042B9196A40F2AB
:103F180044420A401AB91A6822F001021A600020C5
:103F280070475A6C22F400425A64EAE70368DA6878
:103F380042F00202DA60DA6842F00402DA6001F064
:103F48001F000422196A824021EA02011962196AD3
:103F58000A431A625A6C42F400425A6400207047BD
:103F68000368DA6822F00202DA60DA6822F00402F2
:103F7800DA60186A01F01F0104228A4020EA02026E
:103F88001A621A6A1A62196A41F211120A4022B9AF
:103F9800196A40F244420A407AB1196A41F2111290
:103FA8000A4042B9196A40F244420A401AB91A68EA
:103FB80022F001021A60002070475A6C22F4004275
:103FC8005A64EAE790F83C30012B28D0012310B45A
:103FD80080F83C3031F03003036806D19C6824F047
:103FE80070049C609C682143996059685DF8044B93
:103FF80041F001015960596821F00401596059687C
:104008000A435A60DA6822F02002DA60DA6800218E
:1040180022F40052DA6080F83C1008467047022308
:104028001846704790F83C30012B28D0012310B473
:1040380080F83C3031F03003036806D19C6824F0E6
:1040480070049C609C682143996059685DF8044B32
:1040580041F001015960596821F00401596059681B
:104068000A435A60DA6822F40052DA60DA680021FA
:1040780042F02002DA6080F83C10084670470223BC
:104088001846704790F83C30012B2ED00123F0B42D
:1040980080F83C3031F03003036806D19C6824F086
:1040A80070049C609C68214399605C68416B104F68
:1040B800104E114D44F001045C605C6824F0040467
:1040C8005C605C6822435A60DA68CF6322F02002A1
:1040D8000E64CD64DA60DA68002142F40052DA60D6
:1040E800F0BC80F83C100846704702231846704719
:1040F8000542000819420008252E000890F83C30B7
:10410800012B3AD00368022270B480F83D205C6825
:104118000A681B4E9D6824F070042243B3424FF096
:10412800010480F83C405A6019D0B3F1804F16D092
:10413800144A934213D002F5806293420FD002F5DD
:10414800806293420BD002F57842934207D002F581
:104158007052934203D0A2F59432934204D14A6834
:1041680025F0800515439D600023012280F83D203D
:1041780080F83C3070BC184670470220704700BF7A
:10418800000001400004004090F83C30012B22D090
:10419800F0B5D1F80CE08B680C694A69CE6991E8F2
:1041A800A0002EF4407E4EEA030323F480633B43D1
:1041B80023F400632B4323F48053234323F4005355
:1041C8001343016823F48043002233434B6480F88F
:1041D8003C201046F0BD02231846704790F83C205A
:1041E800012A034606D0006800220165104683F8BC
:1041F8003C20704702207047704700BF08B5806BAD
:10420800012380F83D30FFF7F7FF08BD704700BF76
:1042180008B5806B012380F83D30FFF7F7FF08BD34
:10422800704700BF90F83D00704700BF00207047FE
:10423800002800F03C812DE9F0410368DD0782B0D9
:1042480004462FD5AB498A6802F00C02042A00F014
:1042580024818A6802F00C02082A00F01A81636837
:10426800B3F5803F00F05A81B3F5A02F00F0E68047
:10427800A04D2A6822F480322A602A6822F480221B
:104288002A60002B40F0E38005F0CCFB064605E0F1
:1042980005F0C8FB801B642800F2F7802B689B039D
:1042A800F6D423689F0729D5924A916811F00C0F1C
:1042B80000F09180916801F00C01082900F08780D6
:1042C800E368002B00F00E818B4B8A4D01221A60A7
:1042D80005F0A8FB064605E005F0A4FB801B0228B4
:1042E80000F2D3802B68834A9807F5D513682169B3
:1042F80023F0F80343EAC103136023681A0752D472
:10430800580730D57B4A136C13F080537ED00026B3
:104318007A4D2B68D90540F1A880A368012B00F0DD
:10432800C880052B00F05A81724D2A6F22F00102D5
:104338002A672A6F22F004022A67002B40F0BE8009
:1043480005F070FB41F28837804606E005F06AFB0D
:10435800C8EB0000B84200F298802B6F9807F5D49C
:10436800002E40F00581A069C8B1624B9A6802F03E
:104378000C02082A00F0D880614A00210228116046
:1043880000F0FC801C4605F04DFB054604E005F0F6
:1043980049FB401B022878D823689B01F7D40020EA
:1043A80002B0BDE8F081636903B3564B514D012259
:1043B8001A6005F037FB064604E005F033FB801B66
:1043C800022862D86B6F9B07F7D5236898E7526875
:1043D80056023FF575AF474A1268950722D5E2683D
:1043E800012A1FD0012002B0BDE8F081454A414DA5
:1043F800136005F017FB064604E005F013FB801B6D
:10440800022842D86B6F9F07F7D4DEE70193136C3D
:1044180043F080531364136C03F080530193019BA2
:10442800012675E7334920690A6822F0F80242EA52
:10443800C0020A601A077FF563AFB4E72D4B1A680C
:1044480042F480221A601A6842F480321A6005F039
:10445800E9FA284D064604E005F0E4FA801B6428D2
:1044680013D82B689A03F7D51BE72B6843F480739E
:104478002B6005F0D7FA07462B68DA053FF54DAFF4
:1044880005F0D0FAC01B0228F6D9032002B0BDE817
:10449800F0814A6850027FF5E2AE164A126891032D
:1044A8007FF500AF6268002A7FF4FCAE9AE701202E
:1044B8007047104A136F43F00103136705F0B2FA0F
:1044C8000C4D804641F2883705E005F0ABFAC8EBA1
:1044D8000000B842D9D82B6F9B07F6D5002E3FF4C1
:1044E80042AF45E0044A034D136005F09BFA0646C7
:1044F8000FE000BF00380240000047420070004053
:1045080060004742800E474205F08CFA801B022863
:10451800BBD82B689907F7D42368EFE6344A1368A9
:1045280043F48033136092E701283FF439AF5B68A6
:10453800E26903F4800191427FF454AF226A03F0E8
:104548003F0191427FF44EAF47F6C072616A1A404C
:104558008A427FF447AFA26A03F4403191427FF464
:1045680041AFE06A03F07063181A18BF012017E71B
:104578001F4A136C23F080531364F4E61D4605F0BC
:1045880051FA064605E005F04DFA801B02283FF671
:104598007CAF2B68164A9901F5D4266AE169636AEB
:1045A800A06AE56A134C314341EA8313410843EAA0
:1045B8000563013943EA0143012153602160144630
:1045C80005F030FA054605E005F02CFA401B0228F4
:1045D8003FF65BAF23689A01F6D5E0E6044B1A6F05
:1045E80042F004021A671A6F42F001021A6765E77F
:1045F8000038024060004742F0B5034689B00D46D6
:10460800164618B3234C244800230293216B41F02B
:1046180004012163216B059301F0040102914FF419
:10462800007E0322022703A907930692DDF808C03B
:10463800CDF80CE0049700F0D7FEA36845EAC6025F
:1046480023F078431A43A26009B0F0BD114C0190E1
:10465800226B124842F001022263226B059302F09A
:10466800010201924FF4807E0322022703A90793D7
:104678000692DDF804C0CDF80CE0049700F0B4FE13
:10468800A36823F0EC6346EA03021543A56009B06A
:10469800F0BD00BF003802400008024000000240A0
:1046A800014B01221A6070474C004742014B00221F
:1046B8001A6070474C004742174908B58B6803F0E9
:1046C8000C03042B1BD0082B17D14A684B6813F432
:1046D800800302F03F0214D149681048C1F38811E1
:1046E800A1FB000105F0C8FB0B4B5B68C3F301435A
:1046F80001335B00B0FBF3F008BD084808BD08486B
:1047080008BD4B680648C3F38813A3FB00010023C8
:1047180005F0B2FBE8E700BF003802400024F400CF
:1047280040787D012DE9F041044668B1464A136896
:1047380003F00F038B420D4609D2CBB213701368F6
:1047480003F00F038B4202D00120BDE8F0812368FB
:10475800980714D5590704D53C498A6842F4E052B1
:104768008A601A0704D539498A6842F460428A6027
:104778003648A268816821F0F0010A438260DF07A9
:1047880022D56368012B59D09A1E012A2F4A126834
:104798004ED99107D8D52D4EB26822F003021343A3
:1047A800B36005F03FF941F28837804605E005F02F
:1047B80039F9C8EB0000B8423DD8B368626803F025
:1047C8000C03B3EB820FF2D11F4A136803F00F03F7
:1047D8009D4206D2EBB21370136803F00F03AB428D
:1047E800B2D123685A0706D51848E268816821F4CF
:1047F800E0510A4382601B0707D5144A2169936870
:1048080023F4604343EAC1039360FFF755FF0F4B5E
:104818000F4C9B680F49104AC3F30313E35C20FA5B
:1048280003F30868136005F0BBFA0020BDE8F081C7
:104838009001B0D488E70320BDE8F081034A1268EC
:104848009603A8D480E700BF003C0240003802402D
:10485800F8A700080C00002004000020014B18688D
:10486800704700BF04000020044B054A9B680549B7
:10487800C3F382230868D35CD840704700380240ED
:1048880008A8000804000020044B054A9B68054955
:10489800C3F342330868D35CD840704700380240FD
:1048A80008A80008040000200F22274B02601A689D
:1048B80052033AD54FF4A0234360234B224A1B6886
:1048C80013F0010318BF0123C3601368C3F3C403C3
:1048D8000361136F590730D5052383601A4B1A4AB1
:1048E8005B6F13F0010318BF01234361164B1B686C
:1048F800DB014CBF022301238361536803F4800367
:10490800C361536803F03F0303625368C3F388131A
:104918004362536803F4403303F58033DB0B83624F
:104928005368C3F30363C36270471B6813F480338F
:1049380018BF4FF480334360BFE7136F13F00103D0
:1049480018BF01238360C9E7003802400E4B0F22CD
:1049580002609A6802F0030242609A6802F0F0026C
:1049680082609A6802F4E052C2609B6803F4604374
:1049780010B4DB08054C036123685DF8044B03F0B1
:104988000F030B60704700BF00380240003C024034
:10499800704700BF08B5054BDB681B0604D5FFF759
:1049A800F7FF034B80221A7008BD00BF0038024091
:1049B8000E380240F0B5036813F0050F83B00446C3
:1049C8004CD1206810F0020001D103B0F0BD464B75
:1049D800464D002201921A6C42F080521A641B6CF8
:1049E80003F080530193019B2B6843F480732B6081
:1049F80005F018F8064604E005F014F8801B0228B4
:104A080053D82B68D905F7D537490B6F13F4407283
:104A1800E36803F4407010D090420ED00B6F344A14
:104A280023F4407301250020156010600B670B6F9D
:104A3800DA073DD4E36803F44070B0F5407F47D00F
:104A480029498A6822F4F8128A6027490A6FC3F351
:104A58000B03134300200B6703B0F0BD254B224D19
:104A680000221A6004F0DEFF064604E004F0DAFFD4
:104A7800801B022819D82B681B4A1F01F6D46368CB
:104A8800A0681C499B0143EA00730120C2F88430E6
:104A98000860154604F0C6FF06462B68180190D436
:104AA80004F0C0FF801B0228F7D9032003B0F0BD33
:104AB8000D4604F0B7FF41F28836074604E004F0DB
:104AC800B1FFC01BB042F0D82B6F9B07F7D5B1E7F9
:104AD8000548826823F0704122F4F81221F44071ED
:104AE8000A438260B1E700BF00380240007000400E
:104AF800400E4742680047420A4B03220260D3F83F
:104B08008420C2F388124260D3F88420C2F3027270
:104B180082609A681B6F02F4F81203F4407313431F
:104B2800C360704700380240012822D1124A9368B6
:104B380013F4000304D0012B104818BF002070475D
:104B4800536813F4800F536814BF0D490D4903F0DF
:104B58003F03B1FBF3F20849D1F88430D1F884005F
:104B6800C3F3881303FB02F3C0F30270B3FBF0F046
:104B780070470020704700BF003802400080BB002B
:104B880040787D010024F400164B002270B51A60AD
:104B9800064604F047FF144C054604E004F042FFC3
:104BA800401B02281CD823680F4A1901F6D4336821
:104BB80070680C499B0143EA00730120C2F88430F5
:104BC8000860144604F02EFF054604E004F02AFFAE
:104BD800401B022804D823681B01F7D5002070BDAC
:104BE800032070BD680047420038024038B50A4BC0
:104BF8000A4C00221A6004F015FF054604E004F090
:104C080011FF401B022804D8206810F00060F6D17C
:104C180038BD032038BD00BF680047420038024055
:104C2800F8B5424D04F0FEFE2B6843F0010306463A
:104C38002B6004E004F0F6FE801B022874D82B6871
:104C48003A4C9807F6D5236843F08003236004F0B4
:104C5800E9FE00230746A36041F2883604E004F029
:104C6800E1FEC01BB0425FD8A368304D13F00C0FB3
:104C7800F5D104F0D7FE2B6823F4502306462B60A9
:104C880004E004F0CFFE801B64284DD82B68274C25
:104C98009903F6D404F0C6FE236823F08073064611
:104CA800236004E004F0BEFE801B02283CD8236881
:104CB8001E4D9A01F6D404F0B5FE2B6823F08063EC
:104CC80004462B6004E004F0ADFE001B02282BD83C
:104CD8002B68164A1B01F6D41549164B5160C2F8C9
:104CE8008430D36814481549154C23F4F853D3601D
:104CF800D36823F40053D360D36843F41F03D3600D
:104D0800D36843F40013D360536F23F00103536750
:104D1800536F43F08073536700680C6005F040F8E8
:104D2800003018BF0120F8BD0320F8BD003802404C
:104D380010300004003000200C0000200400002087
:104D48000024F4001B4BDA68D10605D51A49CA6954
:104D580010200243CA61D860164BDA68920606D55D
:104D68001549CA69202042F00802CA61D860114B6F
:104D7800DA68500606D51049CA69402042F0040294
:104D8800CA61D8600B4BDA68110606D50A49CA69A8
:104D9800802042F00202CA61D860064BDA689207A6
:104DA80006D50549CA69022042F02002CA61D860C6
:104DB800704700BF003C0240F0050020F0B52C4DC4
:104DC8002C7E012C33D02B4C266946F08076266148
:104DD8002669032746F000764FF0010E26612F70F2
:104DE80085F818E06961A8B1012822D0022830D0DE
:104DF800206920F440702061206940F440702061EF
:104E0800206940F0010020610A60BFF36F8F002025
:104E18004B60F0BD236923F4407323612369236148
:104E28002369D2B243EA0E0323610A70F0BD02205F
:104E3800F0BD236923F440732361236943F480732D
:104E48002361236992B243F00103236100200A80A1
:104E5800F0BD236923F440732361236943F400738D
:104E68002361236943F00103236100200A60F0BD38
:104E7800F0050020003C0240704700BF704700BFAB
:104E8800304BDB6813F0F20F70B52F4C0ED023783F
:104E9800012B41D02378022B0CBF25696569FFF7E8
:104EA80051FF2846FFF7EAFF00232370254BDA68F5
:104EB800D2070DD50122DA602378234D93421BD007
:104EC8002B78022B2DD06869FFF7D6FF00232370BB
:104ED80023781D4A03F0FF016BB91A4B11761A6942
:104EE80022F0FF021A611A6922F080721A611A69A7
:104EF80022F000721A6170BD6B68013B6B606B68D1
:104F0800ABB1E868FFF7B8FFEB680133EB60E8681E
:104F1800297A00F077F9DBE74FF0FF33E568E360C3
:104F2800BDE700F0D3F92869FFF7A6FFCEE74FF0F9
:104F3800FF36EE602B7000F0C9F93046FFF79CFF92
:104F4800C6E700BF003C0240F0050020064B1A6986
:104F5800002A01DB002070470449054A59605A605D
:104F68001869C00F704700BF003C02402301674525
:104F7800AB89EFCD034A136943F000431361002066
:104F8800704700BF003C0240054B5A69D20705D55F
:104F98000449054A996000209A60704701207047CB
:104FA800003C02403B2A19087F6E5D4C034A536956
:104FB80043F0010353610020704700BF003C0240EA
:104FC800014BD869704700BFF0050020124B70B53F
:104FD80000220446DA6104F025FD104D064601E082
:104FE800601C11D1EB680D4AD903F9D4D368DB07EB
:104FF80044BF0123D360094BDB6813F0F20002D0F1
:10500800FFF7A0FE012070BD24B104F00BFD801B4A
:105018008442E7D2032070BDF0050020003C024026
:105028002DE9F8432A4C257E012D02D10220BDE846
:10503800F883074699464CF25030012388461646B5
:105048002376FFF7C3FFB8B9224B1A6922F44072DE
:105058001A611A69A7B91A611969F6B241F0010112
:10506800196188F800604CF25030FFF7AFFF194A19
:10507800136923F00103136100232376BDE8F88345
:10508800012F19D0022F0DD042F440721A611A690B
:1050980042F001021A61C8F80060BFF36F8FC8F8C8
:1050A8000490E0E742F400721A611A6942F00102C2
:1050B8001A61C8F80060D6E742F480721A6119696B
:1050C800B6B241F001011961A8F80060CBE700BF52
:1050D800F0050020003C0240044A137843F0020324
:1050E80013704CF25030FFF771BF00BF143C024000
:1050F80070B52F4D2B7E012B29D003680446DE079F
:105108004FF0010028760FD56368A66883424CF2F9
:1051180050303DD0FFF75AFF00283CD1254923687D
:105128000A88324392B20A80990724D45A0710D4C5
:105138001B0709D5204B207D197801F0F301197060
:105148001A7802431A70002000232B7670BD0220C3
:1051580070BD4CF25030267EFFF738FF38B9164A3A
:10516800137806F0E00603F01F0333431370236837
:105178001B07E9D5DEE74CF250302669FFF726FF1A
:1051880010B90E4BF6B21E7023685A07D0D5E0E767
:10519800FFF71CFF18B123689907C7D5EBE7054946
:1051A80023680A8892B222EA06020A80BCE700BF96
:1051B800F0050020163C0240143C0240153C024019
:1051C8000D4B0E4A1B880F219BB201608360137838
:1051D800DBB2CC2B04D01378AA2B0CBFAA235523FF
:1051E800074A0361536923F01F030376137D03F015
:1051F8000C034361704700BF163C0240153C024057
:10520800003C024039B101291CD002290CBF4FF4DF
:1052180000714FF440710D4B1A6922F440721A6103
:105228001A69114319611A6922F0F8021A611A6998
:1052380042F0020242EAC00018611A6942F4803260
:105248001A6170474FF48071E5E700BF003C0240E7
:105258001C4A38B5137E012B31D01B4B196941F01C
:10526800807119611969F32441F000711961DC60DA
:1052780001680124A14214760BD0C5688368017CBB
:1052880014705560D36011728068FFF7BBFF00206F
:1052980038BD41680224147011611A69016922F449
:1052A80040721A611A6942F004021A611A69C9B295
:1052B80042F4803242EA01221A61002038BD0220FD
:1052C80038BD00BFF0050020003C0240144B1A68AE
:1052D80091050FD51A6822F400721A601A6842F410
:1052E80000621A601A6822F400621A601A6842F4AE
:1052F80000721A600A4B1A6852050FD51A6822F410
:1053080080621A601A6842F480521A601A6822F49D
:1053180080521A601A6842F480621A60704700BFAF
:10532800003C02402DE9F8432D4F3B7E012B02D172
:105338000220BDE8F883012304464CF25030884629
:105348003B76FFF743FE064648BB4FF0FF33C8F8ED
:1053580000302368012B27D0A568E3682B449D42C1
:105368001BD2DFF8809005E0A268E368013513449A
:10537800AB4212D92846217CFFF744FF4CF250304B
:10538800FFF724FED9F8103023F0FA03C9F81030DB
:105398000028E9D00646C8F80050FFF797FF002319
:1053A80030463B76BDE8F8830E4D22692B6923F41D
:1053B80040732B612B6943F004032B612B69D2B234
:1053C80043F4803343EA02232B614CF25030FFF759
:1053D800FDFD2B6923F0040306462B61DDE700BFC2
:1053E800F0050020003C02402DE9F04F002583B075
:1053F800D1F80080DFF818C22A4605E00132102AE9
:1054080005F1020500F09C800123934003EA08049B
:105418009C42F3D14E6826F0100909F1FF33012BA5
:105428004FF0030303FA05F340F28D80C768DB43AE
:1054380003EA070E8F68AF404EEA0707C7600768A0
:1054480006F0030E1F407346AB403B430360F30076
:10545800D4D54FF00009674BCDF804905B6C654FCD
:1054680043F480437B647F6C22F0030307F4804796
:1054780003F18043019703F59C3302F003074FEAD9
:10548800870B5D4FDDF804E0D3F808A04FF00F0E4E
:105498000EFA0BFEB8422AEA0E0E22D007F58067F4
:1054A800B84200F08880554FB84200F08980544FC8
:1054B800B84200F08A80534FB84200F08B80524FB8
:1054C800B84200F08C80514FB84200F08D80DFF870
:1054D800449148450CBF4FF007094FF0080909FAF5
:1054E8000BF949EA0E079F60DCF80030E74316F431
:1054F800803F14BF23433B40CCF80030DCF8043035
:1055080016F4003F14BF23433B40CCF80430DCF8CA
:10551800083016F4801F14BF23433B40CCF80830F2
:10552800DCF80C30B60202F1010254BF07EA0304AA
:105538001C43102ACCF80C4005F102057FF464AF37
:1055480003B0BDE8F08F8768D1F808E0DB4303EAD1
:10555800070ACF68AF404AEA07078760D0F804A077
:10556800C6F300172AEA040A97404AEA0707476081
:10557800C7680EFA05FE1F4047EA0E07B9F1020F89
:10558800C7607FF45CAF4FEAD20900EB890902F0EB
:10559800070ED9F820704FEA8E0E4FF00F0A0AFA5C
:1055A8000EFA27EA0A0A0F6907FA0EF74AEA070706
:1055B800C9F8207043E74FF0010909FA0BF990E7A1
:1055C8004FF0020909FA0BF98BE74FF0030909FAC2
:1055D8000BF986E74FF0040909FA0BF981E74FF058
:1055E800050909FA0BF97CE74FF0060909FA0BF9E6
:1055F80077E700BF00380240000002400008024080
:10560800000C024000100240001402400018024042
:10561800003C0140001C02402DE9F04FDFF830C18A
:10562800DFF830E1454FDFF83081DFF830910023B3
:1056380002E00133102B53D0012505FA03F404EAE4
:105648000102A242F5D123F0030404F1804404F5D9
:105658009C3403F0030BD4F808A04FEA8B0B0F26F9
:1056680006FA0BF6704506EA0A0A4DD0604510D0D6
:1056780040454BD048454DD0314DA8424ED0314DD4
:10568800A8424FD0304DA84250D0304DA84251D0FA
:10569800082505FA0BF5AA4524D0D2435D0003245A
:1056A8000668AC40E443DD08264000EB850506604B
:1056B80003F00706D5F820A0B6004FF00F0B0BFA41
:1056C80006F62AEA06062E62C5682540C5604568C2
:1056D8002A404260826801331440102B8460ABD1A9
:1056E800BDE8F08F3D68D24315403D607D681540A8
:1056F8007D60BD681540BD60FD681540FD60A5680A
:1057080025EA0606A660C9E70025C4E7022505FACA
:105718000BF5C0E7032505FA0BF5BCE7042505FAE8
:105728000BF5B8E7052505FA0BF5B4E7062505FAE4
:105738000BF5B0E7072505FA0BF5ACE7003C01408F
:10574800001002400014024000180240001C0240F1
:10575800000402400000024000080240000C024021
:105768000369194214BF01200020704702B90904D7
:105778008161704743699AB20B4021EA020141EA0C
:1057880003418161704700BF82B04FF480330193B9
:10579800019B0B430193019BC361C161019BC361E1
:1057A800C3690193C06980F48030C0F3004002B03F
:1057B800704700BF704700BF044A5169084208B5E6
:1057C80002D05061FFF7F6FF08BD00BF003C014062
:1057D800F8B506460C4617461D46316801E06B1CB5
:1057E80005D1086820408442F9D10020F8BD2DB1C8
:1057F80004F018F9C01B8542EFD23168CB6823F05A
:105808008003CB60CB6823F02003CB60CB6823F404
:105818008073CB604B69012423F0010300224B61A4
:10582800032086F83D4086F83C20F8BD704700BF4D
:10583800002800F0928090F83D302DE9F04103F007
:10584800FF020446002B69D02368E669D4F8188063
:10585800256AA1682069D4F814C0DFF80CE1022297
:1058680084F83D20DF68E26827F00C07DF6048EA2B
:10587800060747F400671E693D43154326F47C5626
:1058880035431D61DA68014322F4164241F40041B0
:1058980022F00C0241EA0C010A43DA605A697345A6
:1058A80022F440725A613ED02D4A93423BD0FEF713
:1058B800DBFF6268256892184FF000034FF019016A
:1058C8005B41A0FB010104F0D7FA264BA3FB0012B1
:1058D8005109642202FB1100C0003230A3FB0023EF
:1058E8005B0903F0070202EB011203F0F80302EB75
:1058F8004303AB602B6923F480432B616B6923F06E
:105908002A036B61EB68002243F400530121EB602A
:105918001046226484F83D10BDE8F08180F83C20F0
:10592800FFF784FF90E7FEF7AFFF626825689218DB
:105938004FF000034FF019015B41A0FB010104F097
:105948009BFA084BA3FB00214909642202FB1102C0
:10595800D2003232A3FB0223C2E70120704700BF06
:10596800001401401F85EB5100100140704700BF33
:1059780090B10268022310B580F83D30D36823F453
:1059880000530446D360FFF7F1FF0020206484F839
:105998003C0084F83D0010BD012070472DE9F0431C
:1059A800044690F83D00C0B2012883B003D002201D
:1059B80003B0BDE8F0830F460029F9D0002AF7D0DC
:1059C800984694F83C30012BF1D000211223216431
:1059D80084F83C0084F83D30019204F023F8019AE1
:1059E80022858146628506E0FFF7F2FE18BB236830
:1059F8003A785A600137658DADB2204680214A4613
:105A08004346D5B1658DA668013DADB2B6F5805F58
:105A18006585E9D1204680214A464346FFF7D8FEEE
:105A280048B93B8821682269C3F308034B60002A00
:105A3800E0D10237DFE70320BAE74021FFF7C8FECD
:105A48000028F8D1012384F83C0084F83D30AFE702
:105A58002DE9F041044690F83D00C0B2012882B01B
:105A680003D0022002B0BDE8F0810D460029F9D02C
:105A7800002AF7D01E4694F83C30012BF1D00021C3
:105A88002223216484F83C0084F83D30019203F01D
:105A9800C9FF019A2286074662864FF0FF08608E8A
:105AA80080B228B3638EA268013B9BB2B2F5805FD7
:105AB800638620464FF080013A46334625D0FFF7EB
:105AC80087FE00283ED123682046C3F804802021A1
